{
  "contractName": "LavaWallet",
  "abi": [
    {
      "inputs": [],
      "payable": false,
      "stateMutability": "nonpayable",
      "type": "constructor"
    },
    {
      "payable": true,
      "stateMutability": "payable",
      "type": "fallback"
    },
    {
      "anonymous": false,
      "inputs": [
        {
          "indexed": false,
          "name": "token",
          "type": "address"
        },
        {
          "indexed": false,
          "name": "user",
          "type": "address"
        },
        {
          "indexed": false,
          "name": "amount",
          "type": "uint256"
        },
        {
          "indexed": false,
          "name": "balance",
          "type": "uint256"
        }
      ],
      "name": "Deposit",
      "type": "event"
    },
    {
      "anonymous": false,
      "inputs": [
        {
          "indexed": false,
          "name": "token",
          "type": "address"
        },
        {
          "indexed": false,
          "name": "user",
          "type": "address"
        },
        {
          "indexed": false,
          "name": "amount",
          "type": "uint256"
        },
        {
          "indexed": false,
          "name": "balance",
          "type": "uint256"
        }
      ],
      "name": "Withdraw",
      "type": "event"
    },
    {
      "anonymous": false,
      "inputs": [
        {
          "indexed": true,
          "name": "from",
          "type": "address"
        },
        {
          "indexed": true,
          "name": "to",
          "type": "address"
        },
        {
          "indexed": false,
          "name": "token",
          "type": "address"
        },
        {
          "indexed": false,
          "name": "tokens",
          "type": "uint256"
        }
      ],
      "name": "Transfer",
      "type": "event"
    },
    {
      "anonymous": false,
      "inputs": [
        {
          "indexed": true,
          "name": "tokenOwner",
          "type": "address"
        },
        {
          "indexed": true,
          "name": "spender",
          "type": "address"
        },
        {
          "indexed": false,
          "name": "token",
          "type": "address"
        },
        {
          "indexed": false,
          "name": "tokens",
          "type": "uint256"
        }
      ],
      "name": "Approval",
      "type": "event"
    },
    {
      "constant": true,
      "inputs": [],
      "name": "getLavaPacketTypehash",
      "outputs": [
        {
          "name": "",
          "type": "bytes32"
        }
      ],
      "payable": false,
      "stateMutability": "view",
      "type": "function"
    },
    {
      "constant": true,
      "inputs": [
        {
          "components": [
            {
              "name": "methodName",
              "type": "string"
            },
            {
              "name": "relayAuthority",
              "type": "address"
            },
            {
              "name": "from",
              "type": "address"
            },
            {
              "name": "to",
              "type": "address"
            },
            {
              "name": "wallet",
              "type": "address"
            },
            {
              "name": "token",
              "type": "address"
            },
            {
              "name": "tokens",
              "type": "uint256"
            },
            {
              "name": "relayerRewardToken",
              "type": "address"
            },
            {
              "name": "relayerRewardTokens",
              "type": "uint256"
            },
            {
              "name": "expires",
              "type": "uint256"
            },
            {
              "name": "nonce",
              "type": "uint256"
            }
          ],
          "name": "packet",
          "type": "tuple"
        }
      ],
      "name": "getLavaPacketHash",
      "outputs": [
        {
          "name": "",
          "type": "bytes32"
        }
      ],
      "payable": false,
      "stateMutability": "view",
      "type": "function"
    },
    {
      "constant": false,
      "inputs": [
        {
          "name": "from",
          "type": "address"
        },
        {
          "name": "token",
          "type": "address"
        },
        {
          "name": "tokens",
          "type": "uint256"
        }
      ],
      "name": "depositTokens",
      "outputs": [
        {
          "name": "success",
          "type": "bool"
        }
      ],
      "payable": false,
      "stateMutability": "nonpayable",
      "type": "function"
    },
    {
      "constant": false,
      "inputs": [
        {
          "name": "token",
          "type": "address"
        },
        {
          "name": "tokens",
          "type": "uint256"
        }
      ],
      "name": "withdrawTokens",
      "outputs": [
        {
          "name": "success",
          "type": "bool"
        }
      ],
      "payable": false,
      "stateMutability": "nonpayable",
      "type": "function"
    },
    {
      "constant": false,
      "inputs": [
        {
          "name": "from",
          "type": "address"
        },
        {
          "name": "to",
          "type": "address"
        },
        {
          "name": "token",
          "type": "address"
        },
        {
          "name": "tokens",
          "type": "uint256"
        }
      ],
      "name": "withdrawTokensFrom",
      "outputs": [
        {
          "name": "success",
          "type": "bool"
        }
      ],
      "payable": false,
      "stateMutability": "nonpayable",
      "type": "function"
    },
    {
      "constant": true,
      "inputs": [
        {
          "name": "token",
          "type": "address"
        },
        {
          "name": "user",
          "type": "address"
        }
      ],
      "name": "balanceOf",
      "outputs": [
        {
          "name": "",
          "type": "uint256"
        }
      ],
      "payable": false,
      "stateMutability": "view",
      "type": "function"
    },
    {
      "constant": true,
      "inputs": [
        {
          "name": "token",
          "type": "address"
        },
        {
          "name": "tokenOwner",
          "type": "address"
        },
        {
          "name": "spender",
          "type": "address"
        }
      ],
      "name": "allowance",
      "outputs": [
        {
          "name": "remaining",
          "type": "uint256"
        }
      ],
      "payable": false,
      "stateMutability": "view",
      "type": "function"
    },
    {
      "constant": false,
      "inputs": [
        {
          "name": "spender",
          "type": "address"
        },
        {
          "name": "token",
          "type": "address"
        },
        {
          "name": "tokens",
          "type": "uint256"
        }
      ],
      "name": "approveTokens",
      "outputs": [
        {
          "name": "success",
          "type": "bool"
        }
      ],
      "payable": false,
      "stateMutability": "nonpayable",
      "type": "function"
    },
    {
      "constant": false,
      "inputs": [
        {
          "name": "to",
          "type": "address"
        },
        {
          "name": "token",
          "type": "address"
        },
        {
          "name": "tokens",
          "type": "uint256"
        }
      ],
      "name": "transferTokens",
      "outputs": [
        {
          "name": "success",
          "type": "bool"
        }
      ],
      "payable": false,
      "stateMutability": "nonpayable",
      "type": "function"
    },
    {
      "constant": false,
      "inputs": [
        {
          "name": "from",
          "type": "address"
        },
        {
          "name": "to",
          "type": "address"
        },
        {
          "name": "token",
          "type": "address"
        },
        {
          "name": "tokens",
          "type": "uint256"
        }
      ],
      "name": "transferTokensFrom",
      "outputs": [
        {
          "name": "success",
          "type": "bool"
        }
      ],
      "payable": false,
      "stateMutability": "nonpayable",
      "type": "function"
    },
    {
      "constant": true,
      "inputs": [
        {
          "components": [
            {
              "name": "methodName",
              "type": "string"
            },
            {
              "name": "relayAuthority",
              "type": "address"
            },
            {
              "name": "from",
              "type": "address"
            },
            {
              "name": "to",
              "type": "address"
            },
            {
              "name": "wallet",
              "type": "address"
            },
            {
              "name": "token",
              "type": "address"
            },
            {
              "name": "tokens",
              "type": "uint256"
            },
            {
              "name": "relayerRewardToken",
              "type": "address"
            },
            {
              "name": "relayerRewardTokens",
              "type": "uint256"
            },
            {
              "name": "expires",
              "type": "uint256"
            },
            {
              "name": "nonce",
              "type": "uint256"
            }
          ],
          "name": "packet",
          "type": "tuple"
        }
      ],
      "name": "getLavaTypedDataHash",
      "outputs": [
        {
          "name": "",
          "type": "bytes32"
        }
      ],
      "payable": false,
      "stateMutability": "view",
      "type": "function"
    },
    {
      "constant": false,
      "inputs": [
        {
          "components": [
            {
              "name": "methodName",
              "type": "string"
            },
            {
              "name": "relayAuthority",
              "type": "address"
            },
            {
              "name": "from",
              "type": "address"
            },
            {
              "name": "to",
              "type": "address"
            },
            {
              "name": "wallet",
              "type": "address"
            },
            {
              "name": "token",
              "type": "address"
            },
            {
              "name": "tokens",
              "type": "uint256"
            },
            {
              "name": "relayerRewardToken",
              "type": "address"
            },
            {
              "name": "relayerRewardTokens",
              "type": "uint256"
            },
            {
              "name": "expires",
              "type": "uint256"
            },
            {
              "name": "nonce",
              "type": "uint256"
            }
          ],
          "name": "packet",
          "type": "tuple"
        },
        {
          "name": "signature",
          "type": "bytes"
        }
      ],
      "name": "approveTokensWithSignature",
      "outputs": [
        {
          "name": "success",
          "type": "bool"
        }
      ],
      "payable": false,
      "stateMutability": "nonpayable",
      "type": "function"
    },
    {
      "constant": false,
      "inputs": [
        {
          "components": [
            {
              "name": "methodName",
              "type": "string"
            },
            {
              "name": "relayAuthority",
              "type": "address"
            },
            {
              "name": "from",
              "type": "address"
            },
            {
              "name": "to",
              "type": "address"
            },
            {
              "name": "wallet",
              "type": "address"
            },
            {
              "name": "token",
              "type": "address"
            },
            {
              "name": "tokens",
              "type": "uint256"
            },
            {
              "name": "relayerRewardToken",
              "type": "address"
            },
            {
              "name": "relayerRewardTokens",
              "type": "uint256"
            },
            {
              "name": "expires",
              "type": "uint256"
            },
            {
              "name": "nonce",
              "type": "uint256"
            }
          ],
          "name": "packet",
          "type": "tuple"
        },
        {
          "name": "signature",
          "type": "bytes"
        }
      ],
      "name": "transferTokensWithSignature",
      "outputs": [
        {
          "name": "success",
          "type": "bool"
        }
      ],
      "payable": false,
      "stateMutability": "nonpayable",
      "type": "function"
    },
    {
      "constant": false,
      "inputs": [
        {
          "components": [
            {
              "name": "methodName",
              "type": "string"
            },
            {
              "name": "relayAuthority",
              "type": "address"
            },
            {
              "name": "from",
              "type": "address"
            },
            {
              "name": "to",
              "type": "address"
            },
            {
              "name": "wallet",
              "type": "address"
            },
            {
              "name": "token",
              "type": "address"
            },
            {
              "name": "tokens",
              "type": "uint256"
            },
            {
              "name": "relayerRewardToken",
              "type": "address"
            },
            {
              "name": "relayerRewardTokens",
              "type": "uint256"
            },
            {
              "name": "expires",
              "type": "uint256"
            },
            {
              "name": "nonce",
              "type": "uint256"
            }
          ],
          "name": "packet",
          "type": "tuple"
        },
        {
          "name": "signature",
          "type": "bytes"
        }
      ],
      "name": "withdrawTokensWithSignature",
      "outputs": [
        {
          "name": "success",
          "type": "bool"
        }
      ],
      "payable": false,
      "stateMutability": "nonpayable",
      "type": "function"
    },
    {
      "constant": false,
      "inputs": [
        {
          "components": [
            {
              "name": "methodName",
              "type": "string"
            },
            {
              "name": "relayAuthority",
              "type": "address"
            },
            {
              "name": "from",
              "type": "address"
            },
            {
              "name": "to",
              "type": "address"
            },
            {
              "name": "wallet",
              "type": "address"
            },
            {
              "name": "token",
              "type": "address"
            },
            {
              "name": "tokens",
              "type": "uint256"
            },
            {
              "name": "relayerRewardToken",
              "type": "address"
            },
            {
              "name": "relayerRewardTokens",
              "type": "uint256"
            },
            {
              "name": "expires",
              "type": "uint256"
            },
            {
              "name": "nonce",
              "type": "uint256"
            }
          ],
          "name": "packet",
          "type": "tuple"
        },
        {
          "name": "signature",
          "type": "bytes"
        }
      ],
      "name": "burnSignature",
      "outputs": [
        {
          "name": "success",
          "type": "bool"
        }
      ],
      "payable": false,
      "stateMutability": "nonpayable",
      "type": "function"
    },
    {
      "constant": true,
      "inputs": [
        {
          "name": "digest",
          "type": "bytes32"
        }
      ],
      "name": "signatureBurnStatus",
      "outputs": [
        {
          "name": "",
          "type": "uint256"
        }
      ],
      "payable": false,
      "stateMutability": "view",
      "type": "function"
    },
    {
      "constant": false,
      "inputs": [
        {
          "name": "from",
          "type": "address"
        },
        {
          "name": "tokens",
          "type": "uint256"
        },
        {
          "name": "token",
          "type": "address"
        },
        {
          "name": "data",
          "type": "bytes"
        }
      ],
      "name": "receiveApproval",
      "outputs": [
        {
          "name": "success",
          "type": "bool"
        }
      ],
      "payable": false,
      "stateMutability": "nonpayable",
      "type": "function"
    },
    {
      "constant": false,
      "inputs": [
        {
          "components": [
            {
              "name": "methodName",
              "type": "string"
            },
            {
              "name": "relayAuthority",
              "type": "address"
            },
            {
              "name": "from",
              "type": "address"
            },
            {
              "name": "to",
              "type": "address"
            },
            {
              "name": "wallet",
              "type": "address"
            },
            {
              "name": "token",
              "type": "address"
            },
            {
              "name": "tokens",
              "type": "uint256"
            },
            {
              "name": "relayerRewardToken",
              "type": "address"
            },
            {
              "name": "relayerRewardTokens",
              "type": "uint256"
            },
            {
              "name": "expires",
              "type": "uint256"
            },
            {
              "name": "nonce",
              "type": "uint256"
            }
          ],
          "name": "packet",
          "type": "tuple"
        },
        {
          "name": "signature",
          "type": "bytes"
        }
      ],
      "name": "approveAndCall",
      "outputs": [
        {
          "name": "success",
          "type": "bool"
        }
      ],
      "payable": false,
      "stateMutability": "nonpayable",
      "type": "function"
    }
  ],
  "bytecode": "0x608060405234801561001057600080fd5b50612f46806100206000396000f3fe6080604052600436106100fc576000357c0100000000000000000000000000000000000000000000000000000000900463ffffffff16806306b091f914610101578063094171101461013e57806339dc5ef21461017b5780633ba3a427146101b85780634b17bdd8146101f5578063775fe570146102325780638f4ffcb11461026f578063912d6e28146102ac578063927da105146102e9578063a1b54f6814610326578063a64b6e5f14610363578063b0e0ef09146103a0578063bc6e4db7146103dd578063c375ba8a1461041a578063c4608b2914610445578063d13c1a4214610482578063f7888aec146104bf578063fbed3dd8146104fc575b600080fd5b34801561010d57600080fd5b5061012860048036036101239190810190612801565b610539565b6040516101359190612b97565b60405180910390f35b34801561014a57600080fd5b50610165600480360361016091908101906128e1565b6107be565b6040516101729190612c87565b60405180910390f35b34801561018757600080fd5b506101a2600480360361019d91908101906127b2565b6107db565b6040516101af9190612b97565b60405180910390f35b3480156101c457600080fd5b506101df60048036036101da919081019061290a565b610a63565b6040516101ec9190612bb2565b60405180910390f35b34801561020157600080fd5b5061021c6004803603610217919081019061274f565b610af7565b6040516102299190612b97565b60405180910390f35b34801561023e57600080fd5b506102596004803603610254919081019061290a565b610f0f565b6040516102669190612bb2565b60405180910390f35b34801561027b57600080fd5b506102966004803603610291919081019061283d565b610f74565b6040516102a39190612b97565b60405180910390f35b3480156102b857600080fd5b506102d360048036036102ce91908101906127b2565b610f8b565b6040516102e09190612b97565b60405180910390f35b3480156102f557600080fd5b50610310600480360361030b9190810190612700565b6110bd565b60405161031d9190612c87565b60405180910390f35b34801561033257600080fd5b5061034d6004803603610348919081019061294b565b611182565b60405161035a9190612b97565b60405180910390f35b34801561036f57600080fd5b5061038a600480360361038591908101906127b2565b611227565b6040516103979190612b97565b60405180910390f35b3480156103ac57600080fd5b506103c760048036036103c2919081019061274f565b6114b5565b6040516103d49190612b97565b60405180910390f35b3480156103e957600080fd5b5061040460048036036103ff919081019061294b565b6118c5565b6040516104119190612b97565b60405180910390f35b34801561042657600080fd5b5061042f61196a565b60405161043c9190612bb2565b60405180910390f35b34801561045157600080fd5b5061046c6004803603610467919081019061294b565b61198a565b6040516104799190612b97565b60405180910390f35b34801561048e57600080fd5b506104a960048036036104a4919081019061294b565b611a6e565b6040516104b69190612b97565b60405180910390f35b3480156104cb57600080fd5b506104e660048036036104e191908101906126c4565b611c26565b6040516104f39190612c87565b60405180910390f35b34801561050857600080fd5b50610523600480360361051e919081019061294b565b611cac565b6040516105309190612b97565b60405180910390f35b60006105c9826000808673ffffffffffffffffffffffffffffffffffffffff1673ffffffffffffffffffffffffffffffffffffffff16815260200190815260200160002060003373ffffffffffffffffffffffffffffffffffffffff1673ffffffffffffffffffffffffffffffffffffffff16815260200190815260200160002054611d2a90919063ffffffff16565b6000808573ffffffffffffffffffffffffffffffffffffffff1673ffffffffffffffffffffffffffffffffffffffff16815260200190815260200160002060003373ffffffffffffffffffffffffffffffffffffffff1673ffffffffffffffffffffffffffffffffffffffff168152602001908152602001600020819055508273ffffffffffffffffffffffffffffffffffffffff1663a9059cbb33846040518363ffffffff167c010000000000000000000000000000000000000000000000000000000002815260040161069f929190612a38565b602060405180830381600087803b1580156106b957600080fd5b505af11580156106cd573d6000803e3d6000fd5b505050506040513d601f19601f820116820180604052506106f191908101906128b8565b15156106fc57600080fd5b7ff341246adaac6f497bc2a656f546ab9e182111d630394f0c57c710a59a2cb5678333846000808873ffffffffffffffffffffffffffffffffffffffff1673ffffffffffffffffffffffffffffffffffffffff16815260200190815260200160002060003373ffffffffffffffffffffffffffffffffffffffff1673ffffffffffffffffffffffffffffffffffffffff168152602001908152602001600020546040516107ac9493929190612a98565b60405180910390a16001905092915050565b600060026000838152602001908152602001600020549050919050565b60008273ffffffffffffffffffffffffffffffffffffffff166323b872dd8530856040518463ffffffff167c010000000000000000000000000000000000000000000000000000000002815260040161083693929190612a61565b602060405180830381600087803b15801561085057600080fd5b505af1158015610864573d6000803e3d6000fd5b505050506040513d601f19601f8201168201806040525061088891908101906128b8565b151561089357600080fd5b610921826000808673ffffffffffffffffffffffffffffffffffffffff1673ffffffffffffffffffffffffffffffffffffffff16815260200190815260200160002060008773ffffffffffffffffffffffffffffffffffffffff1673ffffffffffffffffffffffffffffffffffffffff16815260200190815260200160002054611d4390919063ffffffff16565b6000808573ffffffffffffffffffffffffffffffffffffffff1673ffffffffffffffffffffffffffffffffffffffff16815260200190815260200160002060008673ffffffffffffffffffffffffffffffffffffffff1673ffffffffffffffffffffffffffffffffffffffff168152602001908152602001600020819055507fdcbc1c05240f31ff3ad067ef1ee35ce4997762752e3a095284754544f4c709d78385846000808873ffffffffffffffffffffffffffffffffffffffff1673ffffffffffffffffffffffffffffffffffffffff16815260200190815260200160002060008973ffffffffffffffffffffffffffffffffffffffff1673ffffffffffffffffffffffffffffffffffffffff16815260200190815260200160002054604051610a509493929190612add565b60405180910390a1600190509392505050565b60006040518080612e4060cd913960cd019050604051809103902082600001518051906020012083602001518460400151856060015186608001518760a001518860c001518960e001518a61010001518b61012001518c6101400151604051602001610ada9c9b9a99989796959493929190612bcd565b604051602081830303815290604052805190602001209050919050565b6000610b87826000808673ffffffffffffffffffffffffffffffffffffffff1673ffffffffffffffffffffffffffffffffffffffff16815260200190815260200160002060008873ffffffffffffffffffffffffffffffffffffffff1673ffffffffffffffffffffffffffffffffffffffff16815260200190815260200160002054611d2a90919063ffffffff16565b6000808573ffffffffffffffffffffffffffffffffffffffff1673ffffffffffffffffffffffffffffffffffffffff16815260200190815260200160002060008773ffffffffffffffffffffffffffffffffffffffff1673ffffffffffffffffffffffffffffffffffffffff16815260200190815260200160002081905550610cd282600160008673ffffffffffffffffffffffffffffffffffffffff1673ffffffffffffffffffffffffffffffffffffffff16815260200190815260200160002060008873ffffffffffffffffffffffffffffffffffffffff1673ffffffffffffffffffffffffffffffffffffffff16815260200190815260200160002060008773ffffffffffffffffffffffffffffffffffffffff1673ffffffffffffffffffffffffffffffffffffffff16815260200190815260200160002054611d2a90919063ffffffff16565b600160008573ffffffffffffffffffffffffffffffffffffffff1673ffffffffffffffffffffffffffffffffffffffff16815260200190815260200160002060008773ffffffffffffffffffffffffffffffffffffffff1673ffffffffffffffffffffffffffffffffffffffff16815260200190815260200160002060008673ffffffffffffffffffffffffffffffffffffffff1673ffffffffffffffffffffffffffffffffffffffff16815260200190815260200160002081905550610e1d826000808673ffffffffffffffffffffffffffffffffffffffff1673ffffffffffffffffffffffffffffffffffffffff16815260200190815260200160002060008773ffffffffffffffffffffffffffffffffffffffff1673ffffffffffffffffffffffffffffffffffffffff16815260200190815260200160002054611d4390919063ffffffff16565b6000808573ffffffffffffffffffffffffffffffffffffffff1673ffffffffffffffffffffffffffffffffffffffff16815260200190815260200160002060008673ffffffffffffffffffffffffffffffffffffffff1673ffffffffffffffffffffffffffffffffffffffff168152602001908152602001600020819055508473ffffffffffffffffffffffffffffffffffffffff168373ffffffffffffffffffffffffffffffffffffffff167fd1398bee19313d6bf672ccb116e51f4a1a947e91c757907f51fbb5b5e56c698f8685604051610efb929190612b22565b60405180910390a360019050949350505050565b600080610f1b83610a63565b60405160200180807f190100000000000000000000000000000000000000000000000000000000000081525060020182815260200191505060405160208183030381529060405280519060200120905080915050919050565b6000610f818584866107db565b9050949350505050565b600081600160008573ffffffffffffffffffffffffffffffffffffffff1673ffffffffffffffffffffffffffffffffffffffff16815260200190815260200160002060003373ffffffffffffffffffffffffffffffffffffffff1673ffffffffffffffffffffffffffffffffffffffff16815260200190815260200160002060008673ffffffffffffffffffffffffffffffffffffffff1673ffffffffffffffffffffffffffffffffffffffff168152602001908152602001600020819055508273ffffffffffffffffffffffffffffffffffffffff163373ffffffffffffffffffffffffffffffffffffffff167fa0175360a15bca328baf7ea85c7b784d58b222a50d0ce760b10dba336d226a6186856040516110aa929190612b22565b60405180910390a3600190509392505050565b6000600160008573ffffffffffffffffffffffffffffffffffffffff1673ffffffffffffffffffffffffffffffffffffffff16815260200190815260200160002060008473ffffffffffffffffffffffffffffffffffffffff1673ffffffffffffffffffffffffffffffffffffffff16815260200190815260200160002060008373ffffffffffffffffffffffffffffffffffffffff1673ffffffffffffffffffffffffffffffffffffffff1681526020019081526020016000205490509392505050565b60006111c76040805190810160405280600881526020017f77697468647261770000000000000000000000000000000000000000000000008152508460000151611d61565b15156111d257600080fd5b60006111dd84610f0f565b90506111ea848285611ea6565b15156111f557600080fd5b611211846040015185606001518660a001518760c001516114b5565b151561121c57600080fd5b600191505092915050565b60006112b7826000808673ffffffffffffffffffffffffffffffffffffffff1673ffffffffffffffffffffffffffffffffffffffff16815260200190815260200160002060003373ffffffffffffffffffffffffffffffffffffffff1673ffffffffffffffffffffffffffffffffffffffff16815260200190815260200160002054611d2a90919063ffffffff16565b6000808573ffffffffffffffffffffffffffffffffffffffff1673ffffffffffffffffffffffffffffffffffffffff16815260200190815260200160002060003373ffffffffffffffffffffffffffffffffffffffff1673ffffffffffffffffffffffffffffffffffffffff168152602001908152602001600020819055506113c4826000808673ffffffffffffffffffffffffffffffffffffffff1673ffffffffffffffffffffffffffffffffffffffff16815260200190815260200160002060008773ffffffffffffffffffffffffffffffffffffffff1673ffffffffffffffffffffffffffffffffffffffff16815260200190815260200160002054611d4390919063ffffffff16565b6000808573ffffffffffffffffffffffffffffffffffffffff1673ffffffffffffffffffffffffffffffffffffffff16815260200190815260200160002060008673ffffffffffffffffffffffffffffffffffffffff1673ffffffffffffffffffffffffffffffffffffffff168152602001908152602001600020819055508273ffffffffffffffffffffffffffffffffffffffff163373ffffffffffffffffffffffffffffffffffffffff167fd1398bee19313d6bf672ccb116e51f4a1a947e91c757907f51fbb5b5e56c698f86856040516114a2929190612b22565b60405180910390a3600190509392505050565b600061158382600160008673ffffffffffffffffffffffffffffffffffffffff1673ffffffffffffffffffffffffffffffffffffffff16815260200190815260200160002060008873ffffffffffffffffffffffffffffffffffffffff1673ffffffffffffffffffffffffffffffffffffffff16815260200190815260200160002060008773ffffffffffffffffffffffffffffffffffffffff1673ffffffffffffffffffffffffffffffffffffffff16815260200190815260200160002054611d2a90919063ffffffff16565b600160008573ffffffffffffffffffffffffffffffffffffffff1673ffffffffffffffffffffffffffffffffffffffff16815260200190815260200160002060008773ffffffffffffffffffffffffffffffffffffffff1673ffffffffffffffffffffffffffffffffffffffff16815260200190815260200160002060008673ffffffffffffffffffffffffffffffffffffffff1673ffffffffffffffffffffffffffffffffffffffff168152602001908152602001600020819055506116ce826000808673ffffffffffffffffffffffffffffffffffffffff1673ffffffffffffffffffffffffffffffffffffffff16815260200190815260200160002060008873ffffffffffffffffffffffffffffffffffffffff1673ffffffffffffffffffffffffffffffffffffffff16815260200190815260200160002054611d2a90919063ffffffff16565b6000808573ffffffffffffffffffffffffffffffffffffffff1673ffffffffffffffffffffffffffffffffffffffff16815260200190815260200160002060008773ffffffffffffffffffffffffffffffffffffffff1673ffffffffffffffffffffffffffffffffffffffff168152602001908152602001600020819055508273ffffffffffffffffffffffffffffffffffffffff1663a9059cbb85846040518363ffffffff167c01000000000000000000000000000000000000000000000000000000000281526004016117a4929190612b22565b602060405180830381600087803b1580156117be57600080fd5b505af11580156117d2573d6000803e3d6000fd5b505050506040513d601f19601f820116820180604052506117f691908101906128b8565b151561180157600080fd5b7ff341246adaac6f497bc2a656f546ab9e182111d630394f0c57c710a59a2cb5678386846000808873ffffffffffffffffffffffffffffffffffffffff1673ffffffffffffffffffffffffffffffffffffffff16815260200190815260200160002060008a73ffffffffffffffffffffffffffffffffffffffff1673ffffffffffffffffffffffffffffffffffffffff168152602001908152602001600020546040516118b19493929190612add565b60405180910390a160019050949350505050565b600061190a6040805190810160405280600881526020017f7472616e736665720000000000000000000000000000000000000000000000008152508460000151611d61565b151561191557600080fd5b600061192084610f0f565b905061192d848285611ea6565b151561193857600080fd5b611954846040015185606001518660a001518760c00151610af7565b151561195f57600080fd5b600191505092915050565b60006040518080612e4060cd913960cd0190506040518091039020905090565b60008061199684610f0f565b905060006119a48285612374565b9050846040015173ffffffffffffffffffffffffffffffffffffffff168173ffffffffffffffffffffffffffffffffffffffff161415156119e457600080fd5b3373ffffffffffffffffffffffffffffffffffffffff16856040015173ffffffffffffffffffffffffffffffffffffffff16141515611a2257600080fd5b600060026000848152602001908152602001600020549050600280600085815260200190815260200160002081905550600081141515611a6157600080fd5b6001935050505092915050565b6000611ab36040805190810160405280600781526020017f617070726f7665000000000000000000000000000000000000000000000000008152508460000151611d61565b158015611b005750611afe6040805190810160405280600881526020017f7472616e736665720000000000000000000000000000000000000000000000008152508460000151611d61565b155b8015611b4c5750611b4a6040805190810160405280600881526020017f77697468647261770000000000000000000000000000000000000000000000008152508460000151611d61565b155b1515611b5757600080fd5b6000611b6284610f0f565b9050611b6f848285611ea6565b1515611b7a57600080fd5b836060015173ffffffffffffffffffffffffffffffffffffffff16638f4ffcb185604001518660c001518760a0015188600001516040518563ffffffff167c0100000000000000000000000000000000000000000000000000000000028152600401611be99493929190612b4b565b600060405180830381600087803b158015611c0357600080fd5b505af1158015611c17573d6000803e3d6000fd5b50505050600191505092915050565b60008060008473ffffffffffffffffffffffffffffffffffffffff1673ffffffffffffffffffffffffffffffffffffffff16815260200190815260200160002060008373ffffffffffffffffffffffffffffffffffffffff1673ffffffffffffffffffffffffffffffffffffffff16815260200190815260200160002054905092915050565b6000611cf16040805190810160405280600781526020017f617070726f7665000000000000000000000000000000000000000000000000008152508460000151611d61565b1515611cfc57600080fd5b6000611d0784610f0f565b9050611d14848285611ea6565b1515611d1f57600080fd5b600191505092915050565b6000828211151515611d3857fe5b818303905092915050565b6000808284019050838110151515611d5757fe5b8091505092915050565b600081518351141515611d775760009050611ea0565b60008090505b8351811015611e9a578281815181101515611d9457fe5b9060200101517f010000000000000000000000000000000000000000000000000000000000000090047f0100000000000000000000000000000000000000000000000000000000000000027effffffffffffffffffffffffffffffffffffffffffffffffffffffffffffff19168482815181101515611e0f57fe5b9060200101517f010000000000000000000000000000000000000000000000000000000000000090047f0100000000000000000000000000000000000000000000000000000000000000027effffffffffffffffffffffffffffffffffffffffffffffffffffffffffffff1916141515611e8d576000915050611ea0565b8080600101915050611d7d565b50600190505b92915050565b60008073ffffffffffffffffffffffffffffffffffffffff16846020015173ffffffffffffffffffffffffffffffffffffffff161480611f2b5750611eee8460200151612458565b158015611f2a5750836020015173ffffffffffffffffffffffffffffffffffffffff163373ffffffffffffffffffffffffffffffffffffffff16145b5b806120155750611f3e8460200151612458565b80156120145750836020015173ffffffffffffffffffffffffffffffffffffffff16638c0636866040518163ffffffff167c0100000000000000000000000000000000000000000000000000000000028152600401602060405180830381600087803b158015611fad57600080fd5b505af1158015611fc1573d6000803e3d6000fd5b505050506040513d601f19601f82011682018060405250611fe5919081019061269b565b73ffffffffffffffffffffffffffffffffffffffff163373ffffffffffffffffffffffffffffffffffffffff16145b5b151561202057600080fd5b600061202c8484612374565b90508073ffffffffffffffffffffffffffffffffffffffff16856040015173ffffffffffffffffffffffffffffffffffffffff1614151561206c57600080fd5b8461012001514310151561207f57600080fd5b600060026000868152602001908152602001600020549050600160026000878152602001908152602001600020819055506000811415156120bf57600080fd5b856101000151600160008860e0015173ffffffffffffffffffffffffffffffffffffffff1673ffffffffffffffffffffffffffffffffffffffff1681526020019081526020016000206000886040015173ffffffffffffffffffffffffffffffffffffffff1673ffffffffffffffffffffffffffffffffffffffff16815260200190815260200160002060003373ffffffffffffffffffffffffffffffffffffffff1673ffffffffffffffffffffffffffffffffffffffff168152602001908152602001600020819055508560e0015173ffffffffffffffffffffffffffffffffffffffff16866040015173ffffffffffffffffffffffffffffffffffffffff167fa0175360a15bca328baf7ea85c7b784d58b222a50d0ce760b10dba336d226a61338961010001516040516121f6929190612a38565b60405180910390a36122178660400151338860e00151896101000151610af7565b151561222257600080fd5b8560c00151600160008860a0015173ffffffffffffffffffffffffffffffffffffffff1673ffffffffffffffffffffffffffffffffffffffff1681526020019081526020016000206000886040015173ffffffffffffffffffffffffffffffffffffffff1673ffffffffffffffffffffffffffffffffffffffff1681526020019081526020016000206000886060015173ffffffffffffffffffffffffffffffffffffffff1673ffffffffffffffffffffffffffffffffffffffff168152602001908152602001600020819055508560a0015173ffffffffffffffffffffffffffffffffffffffff16866040015173ffffffffffffffffffffffffffffffffffffffff167fa0175360a15bca328baf7ea85c7b784d58b222a50d0ce760b10dba336d226a6188606001518960c0015160405161235f929190612b22565b60405180910390a36001925050509392505050565b600080600080604185511415156123915760009350505050612452565b6020850151925060408501519150606085015160001a9050601b8160ff1610156123bc57601b810190505b601b8160ff16141580156123d45750601c8160ff1614155b156123e55760009350505050612452565b60018682858560405160008152602001604052604051808581526020018460ff1660ff1681526020018381526020018281526020019450505050506020604051602081039080840390855afa158015612442573d6000803e3d6000fd5b5050506020604051035193505050505b92915050565b600080823b905060008111915050919050565b60006124778235612d84565b905092915050565b600061248b8251612d84565b905092915050565b600061249f8251612d96565b905092915050565b60006124b38235612da2565b905092915050565b600082601f83011215156124ce57600080fd5b81356124e16124dc82612ccf565b612ca2565b915080825260208301602083018583830111156124fd57600080fd5b612508838284612dec565b50505092915050565b600082601f830112151561252457600080fd5b813561253761253282612cfb565b612ca2565b9150808252602083016020830185838301111561255357600080fd5b61255e838284612dec565b50505092915050565b6000610160828403121561257a57600080fd5b612585610160612ca2565b9050600082013567ffffffffffffffff8111156125a157600080fd5b6125ad84828501612511565b60008301525060206125c18482850161246b565b60208301525060406125d58482850161246b565b60408301525060606125e98482850161246b565b60608301525060806125fd8482850161246b565b60808301525060a06126118482850161246b565b60a08301525060c061262584828501612687565b60c08301525060e06126398482850161246b565b60e08301525061010061264e84828501612687565b6101008301525061012061266484828501612687565b6101208301525061014061267a84828501612687565b6101408301525092915050565b60006126938235612dac565b905092915050565b6000602082840312156126ad57600080fd5b60006126bb8482850161247f565b91505092915050565b600080604083850312156126d757600080fd5b60006126e58582860161246b565b92505060206126f68582860161246b565b9150509250929050565b60008060006060848603121561271557600080fd5b60006127238682870161246b565b93505060206127348682870161246b565b92505060406127458682870161246b565b9150509250925092565b6000806000806080858703121561276557600080fd5b60006127738782880161246b565b94505060206127848782880161246b565b93505060406127958782880161246b565b92505060606127a687828801612687565b91505092959194509250565b6000806000606084860312156127c757600080fd5b60006127d58682870161246b565b93505060206127e68682870161246b565b92505060406127f786828701612687565b9150509250925092565b6000806040838503121561281457600080fd5b60006128228582860161246b565b925050602061283385828601612687565b9150509250929050565b6000806000806080858703121561285357600080fd5b60006128618782880161246b565b945050602061287287828801612687565b93505060406128838782880161246b565b925050606085013567ffffffffffffffff8111156128a057600080fd5b6128ac878288016124bb565b91505092959194509250565b6000602082840312156128ca57600080fd5b60006128d884828501612493565b91505092915050565b6000602082840312156128f357600080fd5b6000612901848285016124a7565b91505092915050565b60006020828403121561291c57600080fd5b600082013567ffffffffffffffff81111561293657600080fd5b61294284828501612567565b91505092915050565b6000806040838503121561295e57600080fd5b600083013567ffffffffffffffff81111561297857600080fd5b61298485828601612567565b925050602083013567ffffffffffffffff8111156129a157600080fd5b6129ad858286016124bb565b9150509250929050565b6129c081612db6565b82525050565b6129cf81612d32565b82525050565b6129de81612d44565b82525050565b6129ed81612d50565b82525050565b60006129fe82612d27565b808452612a12816020860160208601612dfb565b612a1b81612e2e565b602085010191505092915050565b612a3281612d7a565b82525050565b6000604082019050612a4d60008301856129b7565b612a5a6020830184612a29565b9392505050565b6000606082019050612a7660008301866129c6565b612a8360208301856129b7565b612a906040830184612a29565b949350505050565b6000608082019050612aad60008301876129c6565b612aba60208301866129b7565b612ac76040830185612a29565b612ad46060830184612a29565b95945050505050565b6000608082019050612af260008301876129c6565b612aff60208301866129c6565b612b0c6040830185612a29565b612b196060830184612a29565b95945050505050565b6000604082019050612b3760008301856129c6565b612b446020830184612a29565b9392505050565b6000608082019050612b6060008301876129c6565b612b6d6020830186612a29565b612b7a60408301856129c6565b8181036060830152612b8c81846129f3565b905095945050505050565b6000602082019050612bac60008301846129d5565b92915050565b6000602082019050612bc760008301846129e4565b92915050565b600061018082019050612be3600083018f6129e4565b612bf0602083018e6129e4565b612bfd604083018d6129c6565b612c0a606083018c6129c6565b612c17608083018b6129c6565b612c2460a083018a6129c6565b612c3160c08301896129c6565b612c3e60e0830188612a29565b612c4c6101008301876129c6565b612c5a610120830186612a29565b612c68610140830185612a29565b612c76610160830184612a29565b9d9c50505050505050505050505050565b6000602082019050612c9c6000830184612a29565b92915050565b6000604051905081810181811067ffffffffffffffff82111715612cc557600080fd5b8060405250919050565b600067ffffffffffffffff821115612ce657600080fd5b601f19601f8301169050602081019050919050565b600067ffffffffffffffff821115612d1257600080fd5b601f19601f8301169050602081019050919050565b600081519050919050565b6000612d3d82612d5a565b9050919050565b60008115159050919050565b6000819050919050565b600073ffffffffffffffffffffffffffffffffffffffff82169050919050565b6000819050919050565b6000612d8f82612d5a565b9050919050565b60008115159050919050565b6000819050919050565b6000819050919050565b6000612dc182612dc8565b9050919050565b6000612dd382612dda565b9050919050565b6000612de582612d5a565b9050919050565b82818337600083830152505050565b60005b83811015612e19578082015181840152602081019050612dfe565b83811115612e28576000848401525b50505050565b6000601f19601f830116905091905056fe4c6176615061636b657428737472696e67206d6574686f644e616d652c616464726573732072656c6179417574686f726974792c616464726573732066726f6d2c6164647265737320746f2c616464726573732077616c6c65742c6164647265737320746f6b656e2c75696e7432353620746f6b656e732c616464726573732072656c61796572526577617264546f6b656e2c75696e743235362072656c61796572526577617264546f6b656e732c75696e7432353620657870697265732c75696e74323536206e6f6e636529a265627a7a72305820076daadd28164ffe85e46cb6fa89ca9f5010902170de459167cc4d788915ab076c6578706572696d656e74616cf50037",
  "source": "pragma solidity ^0.5.0;\n\n\npragma experimental ABIEncoderV2;\n\n/**\n * @title SafeMath\n * @dev Math operations with safety checks that throw on error\n */\nlibrary SafeMath {\n\n  /**\n  * @dev Multiplies two numbers, throws on overflow.\n  */\n  function mul(uint256 a, uint256 b) internal pure returns (uint256) {\n    if (a == 0) {\n      return 0;\n    }\n    uint256 c = a * b;\n    assert(c / a == b);\n    return c;\n  }\n\n  /**\n  * @dev Integer division of two numbers, truncating the quotient.\n  */\n  function div(uint256 a, uint256 b) internal pure returns (uint256) {\n    // assert(b > 0); // Solidity automatically throws when dividing by 0\n    uint256 c = a / b;\n    // assert(a == b * c + a % b); // There is no case in which this doesn't hold\n    return c;\n  }\n\n  /**\n  * @dev Substracts two numbers, throws on overflow (i.e. if subtrahend is greater than minuend).\n  */\n  function sub(uint256 a, uint256 b) internal pure returns (uint256) {\n    assert(b <= a);\n    return a - b;\n  }\n\n  /**\n  * @dev Adds two numbers, throws on overflow.\n  */\n  function add(uint256 a, uint256 b) internal pure returns (uint256) {\n    uint256 c = a + b;\n    assert(c >= a);\n    return c;\n  }\n}\n\n\ncontract ECRecovery {\n\n  /**\n   * @dev Recover signer address from a message by using their signature\n   * @param hash bytes32 message, the hash is the signed message. What is recovered is the signer address.\n   * @param sig bytes signature, the signature is generated using web3.eth.sign()\n   */\n  function recover(bytes32 hash, bytes memory sig) internal  pure returns (address) {\n    bytes32 r;\n    bytes32 s;\n    uint8 v;\n\n    //Check the signature length\n    if (sig.length != 65) {\n      return (address(0));\n    }\n\n    // Divide the signature in r, s and v variables\n    assembly {\n      r := mload(add(sig, 32))\n      s := mload(add(sig, 64))\n      v := byte(0, mload(add(sig, 96)))\n    }\n\n    // Version of signature should be 27 or 28, but 0 and 1 are also possible versions\n    if (v < 27) {\n      v += 27;\n    }\n\n    // If the version is correct return the signer address\n    if (v != 27 && v != 28) {\n      return (address(0));\n    } else {\n      return ecrecover(hash, v, r, s);\n    }\n  }\n\n}\n\n\n\n/*\n\nThis is a token wallet contract\n\nStore your tokens in this contract to give them super powers\n\nTokens can be spent from the contract with only an ecSignature from the owner - onchain approve is not needed\n\n\n*/\n\ncontract ERC20Interface {\n    function totalSupply() public view returns (uint);\n    function balanceOf(address tokenOwner) public view returns (uint balance);\n    function allowance(address tokenOwner, address spender) public view returns (uint remaining);\n    function transfer(address to, uint tokens) public returns (bool success);\n    function approve(address spender, uint tokens) public returns (bool success);\n    function transferFrom(address from, address to, uint tokens) public returns (bool success);\n\n    event Transfer(address indexed from, address indexed to, uint tokens);\n    event Approval(address indexed tokenOwner, address indexed spender, uint tokens);\n}\ncontract ERC918Interface {\n  function totalSupply() public view returns (uint);\n  function getMiningDifficulty() public view returns (uint);\n  function getMiningTarget() public view returns (uint);\n  function getMiningReward() public view returns (uint);\n  function balanceOf(address tokenOwner) public view returns (uint balance);\n\n  function mint(uint256 nonce, bytes32 challenge_digest) public returns (bool success);\n\n  event Mint(address indexed from, uint reward_amount, uint epochCount, bytes32 newChallengeNumber);\n\n}\n\n/*contract MiningKingInterface {\n    function getMiningKing() public returns (address);\n    function transferKing(address newKing) public;\n    function mint(uint256 nonce, bytes32 challenge_digest) returns (bool);\n\n    event TransferKing(address from, address to);\n}*/\n\ncontract RelayAuthorityInterface {\n    function getRelayAuthority() public returns (address);\n}\n\ncontract ApproveAndCallFallBack {\n    function receiveApproval(address from, uint256 tokens, address token, bytes memory data) public;\n}\n\n\n\n\n\n\ncontract LavaWallet is ECRecovery{\n\n  using SafeMath for uint;\n\n  // balances[tokenContractAddress][EthereumAccountAddress] = 0\n   mapping(address => mapping (address => uint256)) balances;\n\n   //token => owner => spender : amount\n   mapping(address => mapping (address => mapping (address => uint256))) allowed;\n\n   //mapping(address => uint256) depositedTokens;\n\n   mapping(bytes32 => uint256) burnedSignatures;\n\n\n  event Deposit(address token, address user, uint amount, uint balance);\n  event Withdraw(address token, address user, uint amount, uint balance);\n  event Transfer(address indexed from, address indexed to,address token, uint tokens);\n  event Approval(address indexed tokenOwner, address indexed spender,address token, uint tokens);\n\n\n\n  /*struct EIP712Domain {\n      string  name;\n      address verifyingContract;\n  }*/\n\n\n  struct LavaPacket {\n    string methodName;\n    address relayAuthority; //either a contract or an account\n    address from;\n    address to;\n    address wallet;  //this contract address\n    address token;\n    uint256 tokens;\n    address relayerRewardToken;\n    uint256 relayerRewardTokens;\n    uint256 expires;\n    uint256 nonce;\n  }\n\n\n  /*\n      MUST update these if architecture changes !!\n      MAKE SURE there are no spaces !\n  */\n//  bytes32 constant EIP712DOMAIN_TYPEHASH = keccak256(\n//      \"EIP712Domain(string name,address verifyingContract)\"\n//  );\n\n  bytes32 constant LAVAPACKET_TYPEHASH = keccak256(\n      \"LavaPacket(string methodName,address relayAuthority,address from,address to,address wallet,address token,uint256 tokens,address relayerRewardToken,uint256 relayerRewardTokens,uint256 expires,uint256 nonce)\"\n  );\n\n\n\n//  function getDomainTypehash()   pure returns (bytes32) {\n//      return EIP712DOMAIN_TYPEHASH;\n//  }\n\n    function getLavaPacketTypehash() public view returns (bytes32) {\n      return LAVAPACKET_TYPEHASH;\n  }\n\n\n\n\n/*  function getDomainHash(EIP712Domain eip712Domain)  pure returns (bytes32) {\n        return keccak256(abi.encode(\n            EIP712DOMAIN_TYPEHASH,\n            keccak256(bytes(eip712Domain.name)),\n            eip712Domain.verifyingContract\n        ));\n    }*/\n\n    function getLavaPacketHash(LavaPacket memory packet) public view returns (bytes32) {\n        return keccak256(abi.encode(\n            LAVAPACKET_TYPEHASH,\n            keccak256(bytes(packet.methodName)),\n            packet.relayAuthority,\n            packet.from,\n            packet.to,\n            packet.wallet,\n            packet.token,\n            packet.tokens,\n            packet.relayerRewardToken,\n            packet.relayerRewardTokens,\n            packet.expires,\n            packet.nonce\n        //    keccak256(bytes(packet.callData))\n        ));\n    }\n\n\n\n  constructor(  ) public {\n\n\n  }\n\n\n  //do not allow ether to enter\n  function() external    payable {\n      revert();\n  }\n\n\n   //Remember you need pre-approval for this - nice with ApproveAndCall\n  function depositTokens(address from, address token, uint256 tokens ) public returns (bool success)\n  {\n      //we already have approval so lets do a transferFrom - transfer the tokens into this contract\n\n      require(ERC20Interface(token).transferFrom(from, address(this), tokens));\n\n      balances[token][from] = balances[token][from].add(tokens);\n  //    depositedTokens[token] = depositedTokens[token].add(tokens);\n\n      emit Deposit(token, from, tokens, balances[token][from]);\n\n      return true;\n  }\n\n\n  //No approve needed, only from msg.sender\n  function withdrawTokens(address token, uint256 tokens) public returns (bool success){\n     balances[token][msg.sender] = balances[token][msg.sender].sub(tokens);\n\n     require(ERC20Interface(token).transfer(msg.sender, tokens));\n\n\n     emit Withdraw(token, msg.sender, tokens, balances[token][msg.sender]);\n     return true;\n  }\n\n  //Requires approval so it can be public\n  function withdrawTokensFrom( address from, address to,address token,  uint tokens) public returns (bool success) {\n\n       allowed[token][from][to] = allowed[token][from][to].sub(tokens);\n       balances[token][from] = balances[token][from].sub(tokens);\n\n      require(ERC20Interface(token).transfer(to, tokens));\n\n\n      emit Withdraw(token, from, tokens, balances[token][from]);\n      return true;\n  }\n\n\n  function balanceOf(address token,address user) public view returns (uint) {\n       return balances[token][user];\n   }\n\n\n\n   function allowance(address token, address tokenOwner, address spender) public view returns (uint remaining) {\n\n       return allowed[token][tokenOwner][spender];\n\n   }\n\n\n\n\n  //Can also be used to remove approval by using a 'tokens' value of 0.  P.S. it makes no sense to do an ApproveTokensFrom\n  function approveTokens(address spender, address token, uint tokens) public returns (bool success) {\n      allowed[token][msg.sender][spender] = tokens;\n      emit Approval(msg.sender, token, spender, tokens);\n      return true;\n  }\n\n  ///transfer tokens within the lava balances\n  //No approve needed, only from msg.sender\n   function transferTokens(address to, address token, uint tokens) public returns (bool success) {\n        balances[token][msg.sender] = balances[token][msg.sender].sub(tokens);\n        balances[token][to] = balances[token][to].add(tokens);\n        emit Transfer(msg.sender, token, to, tokens);\n        return true;\n    }\n\n\n    ///transfer tokens within the lava balances\n    //Can be public because it requires approval\n   function transferTokensFrom( address from, address to,address token,  uint tokens) public returns (bool success) {\n       balances[token][from] = balances[token][from].sub(tokens);\n       allowed[token][from][to] = allowed[token][from][to].sub(tokens);\n       balances[token][to] = balances[token][to].add(tokens);\n       emit Transfer(token, from, to, tokens);\n       return true;\n   }\n\n\n\n  // function getLavaPacket(address from,)\n\n   //This replaces getLavaTypedDataHash .. how to handle methodName?\n\n   function getLavaTypedDataHash(LavaPacket memory packet) public view returns (bytes32) {\n\n\n          // Note: we need to use `encodePacked` here instead of `encode`.\n          bytes32 digest = keccak256(abi.encodePacked(\n              \"\\x19\\x01\",\n            //  DOMAIN_SEPARATOR,\n              getLavaPacketHash(packet)\n          ));\n          return digest;\n      }\n\n\n\n   //Nonce is the same thing as a 'check number'\n   //EIP 712\n/*   function getLavaTypedDataHash(bytes methodName, LavaPacket packet ) public view returns (bytes32)\n   {\n\n\n         bytes32 hardcodedSchemaHash = 0x8fd4f9177556bbc74d0710c8bdda543afd18cc84d92d64b5620d5f1881dceb37; //with methodName\n\n\n        bytes32 typedDataHash = sha3(\n            hardcodedSchemaHash,\n            sha3(methodName,packet.from,packet.to,this,packet.token,packet.tokens,packet.relayerReward,packet.expires,packet.nonce)\n          );\n\n        return typedDataHash;\n   }*/\n\n\n\n\n\n\n\n\n   function _tokenApprovalWithSignature(LavaPacket memory packet, bytes32 sigHash, bytes memory signature) internal returns (bool success)\n   {\n\n       /*\n        Always allow relaying if the specified relayAuthority is 0.\n        If the authority address is not a contract, allow it to relay\n        If the authority address is a contract, allow its defined 'getAuthority()' delegate to relay\n       */\n\n       require( packet.relayAuthority == address(0x0)\n         || (!addressContainsContract(packet.relayAuthority) && msg.sender == packet.relayAuthority)\n         || (addressContainsContract(packet.relayAuthority) && msg.sender == RelayAuthorityInterface(packet.relayAuthority).getRelayAuthority())  );\n\n\n\n      address recoveredSignatureSigner = recover(sigHash,signature);\n\n\n       //make sure the signer is the depositor of the tokens\n       require(packet.from == recoveredSignatureSigner);\n\n\n       //make sure the signature has not expired\n       require(block.number < packet.expires);\n\n       uint burnedSignature = burnedSignatures[sigHash];\n       burnedSignatures[sigHash] = 0x1; //spent\n       require(burnedSignature == 0x0 );\n\n       //approve the relayer reward\n       allowed[packet.relayerRewardToken][packet.from][msg.sender] = packet.relayerRewardTokens;\n       emit Approval(packet.from, packet.relayerRewardToken, msg.sender, packet.relayerRewardTokens);\n\n       //transferRelayerReward\n       require(transferTokensFrom(packet.from, msg.sender, packet.relayerRewardToken, packet.relayerRewardTokens));\n\n       //approve transfer of tokens\n       allowed[packet.token][packet.from][packet.to] = packet.tokens;\n       emit Approval(packet.from, packet.token, packet.to, packet.tokens);\n\n\n       return true;\n   }\n\n\n\n   function approveTokensWithSignature(LavaPacket memory packet, bytes memory signature) public returns (bool success)\n   {\n       require(bytesEqual('approve',bytes(packet.methodName)));\n\n       bytes32 sigHash = getLavaTypedDataHash(packet);\n\n       require(_tokenApprovalWithSignature(packet,sigHash,signature));\n\n\n       return true;\n   }\n\n\n   //the tokens remain in lava wallet\n  function transferTokensWithSignature(LavaPacket memory packet, bytes memory signature) public returns (bool success)\n  {\n\n      require(bytesEqual('transfer',bytes(packet.methodName)));\n\n      //check to make sure that signature == ecrecover signature\n      bytes32 sigHash = getLavaTypedDataHash(packet);\n\n      require(_tokenApprovalWithSignature(packet,sigHash,signature));\n\n      //it can be requested that fewer tokens be sent that were approved -- the whole approval will be invalidated though\n      require(transferTokensFrom( packet.from, packet.to, packet.token, packet.tokens));\n\n\n      return true;\n\n  }\n\n\n  //the tokens remain in lava wallet\n function withdrawTokensWithSignature(LavaPacket memory packet, bytes memory signature) public returns (bool success)\n {\n     require(bytesEqual('withdraw',bytes(packet.methodName)));\n\n     //check to make sure that signature == ecrecover signature\n     bytes32 sigHash = getLavaTypedDataHash(packet);\n\n     require(_tokenApprovalWithSignature(packet,sigHash,signature));\n\n     //it can be requested that fewer tokens be sent that were approved -- the whole approval will be invalidated though\n     require(withdrawTokensFrom( packet.from, packet.to, packet.token, packet.tokens));\n\n\n     return true;\n\n }\n\n\n\n\n\n     function burnSignature( LavaPacket memory packet,  bytes memory signature) public returns (bool success)\n     {\n\n\n        bytes32 sigHash = getLavaTypedDataHash( packet);\n\n         address recoveredSignatureSigner = recover(sigHash,signature);\n\n         //make sure the invalidator is the signer\n         require(recoveredSignatureSigner == packet.from);\n\n         //only the original packet owner can burn signature, not a relay\n         require(packet.from == msg.sender);\n\n         //make sure this signature has never been used\n         uint burnedSignature = burnedSignatures[sigHash];\n         burnedSignatures[sigHash] = 0x2; //invalidated\n         require(burnedSignature == 0x0);\n\n         return true;\n     }\n\n\n     function signatureBurnStatus(bytes32 digest) public view returns (uint)\n     {\n       return (burnedSignatures[digest]);\n     }\n\n\n\n\n       /*\n         Receive approval to spend tokens and perform any action all in one transaction\n       */\n     function receiveApproval(address from, uint256 tokens, address token, bytes memory data) public returns (bool success) {\n\n\n       return depositTokens(from, token, tokens );\n\n     }\n\n     /*\n      Approve lava tokens for a smart contract and call the contracts receiveApproval method all in one fell swoop\n\n\n      */\n     function approveAndCall( LavaPacket memory packet, bytes memory signature ) public returns (bool success)   {\n\n      // address from, address to, address token, uint256 tokens, uint256 relayerReward,  uint256 expires, uint256 nonce\n\n\n      require(!bytesEqual('approve',bytes(packet.methodName))\n      && !bytesEqual('transfer',bytes(packet.methodName))\n      && !bytesEqual('withdraw',bytes(packet.methodName)) );\n\n        bytes32 sigHash = getLavaTypedDataHash( packet);\n\n\n        require(_tokenApprovalWithSignature(packet,sigHash,signature));\n\n        ApproveAndCallFallBack(packet.to).receiveApproval(packet.from, packet.tokens, packet.token, bytes(packet.methodName));\n\n        return true;\n     }\n\n\n\n     function addressContainsContract(address _to) view internal returns (bool)\n     {\n       uint codeLength;\n\n        assembly {\n            // Retrieve the size of the code on target address, this needs assembly .\n            codeLength := extcodesize(_to)\n        }\n\n         return (codeLength>0);\n     }\n\n\n     function bytesEqual(bytes memory b1,bytes memory b2) pure internal returns (bool)\n        {\n          if(b1.length != b2.length) return false;\n\n          for (uint i=0; i<b1.length; i++) {\n            if(b1[i] != b2[i]) return false;\n          }\n\n          return true;\n        }\n\n\n}\n",
  "sourcePath": "/home/andy/dev/lava-token/contracts/LavaWallet.sol",
  "compiler": {
    "name": "solc",
    "version": "0.5.0+commit.1d4f565a.Emscripten.clang"
  },
  "schemaVersion": "3.0.3",
  "updatedAt": "2019-03-14T02:15:07.932Z",
  "devdoc": {
    "methods": {}
  },
  "userdoc": {
    "methods": {
      "transferTokens(address,address,uint256)": {
        "notice": "transfer tokens within the lava balances"
      },
      "transferTokensFrom(address,address,address,uint256)": {
        "notice": "transfer tokens within the lava balances"
      }
    }
  }
}