{
  "contractName": "StakingDelegate",
  "abi": [
    {
      "constant": true,
      "inputs": [
        {
          "name": "",
          "type": "address"
        }
      ],
      "name": "balances",
      "outputs": [
        {
          "name": "",
          "type": "uint256"
        }
      ],
      "payable": false,
      "stateMutability": "view",
      "type": "function"
    },
    {
      "constant": true,
      "inputs": [],
      "name": "numberOfStakers",
      "outputs": [
        {
          "name": "",
          "type": "uint256"
        }
      ],
      "payable": false,
      "stateMutability": "view",
      "type": "function"
    },
    {
      "constant": true,
      "inputs": [
        {
          "name": "",
          "type": "uint256"
        }
      ],
      "name": "stakerAuthorities",
      "outputs": [
        {
          "name": "",
          "type": "address"
        }
      ],
      "payable": false,
      "stateMutability": "view",
      "type": "function"
    },
    {
      "constant": true,
      "inputs": [
        {
          "name": "",
          "type": "uint256"
        }
      ],
      "name": "stakingLockBlock",
      "outputs": [
        {
          "name": "",
          "type": "uint256"
        }
      ],
      "payable": false,
      "stateMutability": "view",
      "type": "function"
    },
    {
      "constant": true,
      "inputs": [
        {
          "name": "",
          "type": "uint256"
        }
      ],
      "name": "amountStaked",
      "outputs": [
        {
          "name": "",
          "type": "uint256"
        }
      ],
      "payable": false,
      "stateMutability": "view",
      "type": "function"
    },
    {
      "constant": true,
      "inputs": [],
      "name": "minedToken",
      "outputs": [
        {
          "name": "",
          "type": "address"
        }
      ],
      "payable": false,
      "stateMutability": "view",
      "type": "function"
    },
    {
      "constant": true,
      "inputs": [
        {
          "name": "",
          "type": "uint256"
        }
      ],
      "name": "stakers",
      "outputs": [
        {
          "name": "",
          "type": "address"
        }
      ],
      "payable": false,
      "stateMutability": "view",
      "type": "function"
    },
    {
      "inputs": [
        {
          "name": "mintableToken",
          "type": "address"
        }
      ],
      "payable": false,
      "stateMutability": "nonpayable",
      "type": "constructor"
    },
    {
      "payable": true,
      "stateMutability": "payable",
      "type": "fallback"
    },
    {
      "anonymous": false,
      "inputs": [
        {
          "indexed": false,
          "name": "token",
          "type": "address"
        },
        {
          "indexed": false,
          "name": "user",
          "type": "address"
        },
        {
          "indexed": false,
          "name": "amount",
          "type": "uint256"
        },
        {
          "indexed": false,
          "name": "balance",
          "type": "uint256"
        }
      ],
      "name": "Deposit",
      "type": "event"
    },
    {
      "anonymous": false,
      "inputs": [
        {
          "indexed": false,
          "name": "token",
          "type": "address"
        },
        {
          "indexed": false,
          "name": "user",
          "type": "address"
        },
        {
          "indexed": false,
          "name": "amount",
          "type": "uint256"
        },
        {
          "indexed": false,
          "name": "balance",
          "type": "uint256"
        }
      ],
      "name": "Withdraw",
      "type": "event"
    },
    {
      "constant": false,
      "inputs": [
        {
          "name": "tokens",
          "type": "uint256"
        },
        {
          "name": "stakerIndex",
          "type": "uint256"
        },
        {
          "name": "authority",
          "type": "address"
        }
      ],
      "name": "startStaking",
      "outputs": [
        {
          "name": "",
          "type": "bool"
        }
      ],
      "payable": false,
      "stateMutability": "nonpayable",
      "type": "function"
    },
    {
      "constant": false,
      "inputs": [
        {
          "name": "stakerIndex",
          "type": "uint256"
        }
      ],
      "name": "stopStaking",
      "outputs": [
        {
          "name": "",
          "type": "bool"
        }
      ],
      "payable": false,
      "stateMutability": "nonpayable",
      "type": "function"
    },
    {
      "constant": true,
      "inputs": [],
      "name": "getRelayAuthority",
      "outputs": [
        {
          "name": "king",
          "type": "address"
        }
      ],
      "payable": false,
      "stateMutability": "view",
      "type": "function"
    },
    {
      "constant": true,
      "inputs": [
        {
          "name": "stakerIndex",
          "type": "uint256"
        }
      ],
      "name": "isSlotOpen",
      "outputs": [
        {
          "name": "open",
          "type": "bool"
        }
      ],
      "payable": false,
      "stateMutability": "view",
      "type": "function"
    },
    {
      "constant": true,
      "inputs": [],
      "name": "getEpochNumber",
      "outputs": [
        {
          "name": "",
          "type": "uint256"
        }
      ],
      "payable": false,
      "stateMutability": "view",
      "type": "function"
    },
    {
      "constant": false,
      "inputs": [
        {
          "name": "from",
          "type": "address"
        },
        {
          "name": "tokens",
          "type": "uint256"
        }
      ],
      "name": "depositTokens",
      "outputs": [
        {
          "name": "success",
          "type": "bool"
        }
      ],
      "payable": false,
      "stateMutability": "nonpayable",
      "type": "function"
    },
    {
      "constant": false,
      "inputs": [
        {
          "name": "tokens",
          "type": "uint256"
        }
      ],
      "name": "withdrawTokens",
      "outputs": [
        {
          "name": "success",
          "type": "bool"
        }
      ],
      "payable": false,
      "stateMutability": "nonpayable",
      "type": "function"
    },
    {
      "constant": false,
      "inputs": [
        {
          "name": "from",
          "type": "address"
        },
        {
          "name": "tokens",
          "type": "uint256"
        },
        {
          "name": "token",
          "type": "address"
        },
        {
          "name": "data",
          "type": "bytes"
        }
      ],
      "name": "receiveApproval",
      "outputs": [
        {
          "name": "success",
          "type": "bool"
        }
      ],
      "payable": false,
      "stateMutability": "nonpayable",
      "type": "function"
    }
  ],
  "bytecode": "0x6080604052600f60045534801561001557600080fd5b506040516020806116dc8339810180604052602081101561003557600080fd5b810190808051906020019092919050505080600660006101000a81548173ffffffffffffffffffffffffffffffffffffffff021916908373ffffffffffffffffffffffffffffffffffffffff16021790555050611645806100976000396000f3fe6080604052600436106100db576000357c0100000000000000000000000000000000000000000000000000000000900463ffffffff1680631c760bdb146100e057806327e235e314610133578063315a095d146101985780635eabf577146101eb57806366168bd7146102165780637b0e5910146102895780638c063686146103065780638f4ffcb11461035d5780639a7b3be7146104875780639f5723a2146104b2578063b5ea4d7514610505578063bbbfb63114610580578063de41faf6146105cf578063edfffca01461061e578063fd5e6dd114610675575b600080fd5b3480156100ec57600080fd5b506101196004803603602081101561010357600080fd5b81019080803590602001909291905050506106f0565b604051808215151515815260200191505060405180910390f35b34801561013f57600080fd5b506101826004803603602081101561015657600080fd5b81019080803573ffffffffffffffffffffffffffffffffffffffff169060200190929190505050610930565b6040518082815260200191505060405180910390f35b3480156101a457600080fd5b506101d1600480360360208110156101bb57600080fd5b8101908080359060200190929190505050610948565b604051808215151515815260200191505060405180910390f35b3480156101f757600080fd5b50610200610bfb565b6040518082815260200191505060405180910390f35b34801561022257600080fd5b5061026f6004803603604081101561023957600080fd5b81019080803573ffffffffffffffffffffffffffffffffffffffff16906020019092919080359060200190929190505050610c01565b604051808215151515815260200191505060405180910390f35b34801561029557600080fd5b506102ec600480360360608110156102ac57600080fd5b810190808035906020019092919080359060200190929190803573ffffffffffffffffffffffffffffffffffffffff169060200190929190505050610ee9565b604051808215151515815260200191505060405180910390f35b34801561031257600080fd5b5061031b6112e6565b604051808273ffffffffffffffffffffffffffffffffffffffff1673ffffffffffffffffffffffffffffffffffffffff16815260200191505060405180910390f35b34801561036957600080fd5b5061046d6004803603608081101561038057600080fd5b81019080803573ffffffffffffffffffffffffffffffffffffffff16906020019092919080359060200190929190803573ffffffffffffffffffffffffffffffffffffffff169060200190929190803590602001906401000000008111156103e757600080fd5b8201836020820111156103f957600080fd5b8035906020019184600183028401116401000000008311171561041b57600080fd5b91908080601f016020809104026020016040519081016040528093929190818152602001838380828437600081840152601f19601f820116905080830192505050505050509192919290505050611340565b604051808215151515815260200191505060405180910390f35b34801561049357600080fd5b5061049c6113b2565b6040518082815260200191505060405180910390f35b3480156104be57600080fd5b506104eb600480360360208110156104d557600080fd5b8101908080359060200190929190505050611478565b604051808215151515815260200191505060405180910390f35b34801561051157600080fd5b5061053e6004803603602081101561052857600080fd5b81019080803590602001909291905050506114a4565b604051808273ffffffffffffffffffffffffffffffffffffffff1673ffffffffffffffffffffffffffffffffffffffff16815260200191505060405180910390f35b34801561058c57600080fd5b506105b9600480360360208110156105a357600080fd5b81019080803590602001909291905050506114e2565b6040518082815260200191505060405180910390f35b3480156105db57600080fd5b50610608600480360360208110156105f257600080fd5b8101908080359060200190929190505050611505565b6040518082815260200191505060405180910390f35b34801561062a57600080fd5b50610633611528565b604051808273ffffffffffffffffffffffffffffffffffffffff1673ffffffffffffffffffffffffffffffffffffffff16815260200191505060405180910390f35b34801561068157600080fd5b506106ae6004803603602081101561069857600080fd5b810190808035906020019092919050505061154e565b604051808273ffffffffffffffffffffffffffffffffffffffff1673ffffffffffffffffffffffffffffffffffffffff16815260200191505060405180910390f35b60003373ffffffffffffffffffffffffffffffffffffffff1660008381548110151561071857fe5b9060005260206000200160009054906101000a900473ffffffffffffffffffffffffffffffffffffffff1673ffffffffffffffffffffffffffffffffffffffff1614151561076557600080fd5b6004548210151561077557600080fd5b60038281548110151561078457fe5b90600052602060002001546107976113b2565b1115156107a357600080fd5b60006002838154811015156107b457fe5b9060005260206000200154905060006002848154811015156107d257fe5b9060005260206000200181905550600080848154811015156107f057fe5b9060005260206000200160006101000a81548173ffffffffffffffffffffffffffffffffffffffff021916908373ffffffffffffffffffffffffffffffffffffffff160217905550600060018481548110151561084957fe5b9060005260206000200160006101000a81548173ffffffffffffffffffffffffffffffffffffffff021916908373ffffffffffffffffffffffffffffffffffffffff1602179055506108e381600560003373ffffffffffffffffffffffffffffffffffffffff1673ffffffffffffffffffffffffffffffffffffffff1681526020019081526020016000205461158c90919063ffffffff16565b600560003373ffffffffffffffffffffffffffffffffffffffff1673ffffffffffffffffffffffffffffffffffffffff168152602001908152602001600020819055506001915050919050565b60056020528060005260406000206000915090505481565b600061099c82600560003373ffffffffffffffffffffffffffffffffffffffff1673ffffffffffffffffffffffffffffffffffffffff168152602001908152602001600020546115aa90919063ffffffff16565b600560003373ffffffffffffffffffffffffffffffffffffffff1673ffffffffffffffffffffffffffffffffffffffff16815260200190815260200160002081905550600660009054906101000a900473ffffffffffffffffffffffffffffffffffffffff1673ffffffffffffffffffffffffffffffffffffffff1663a9059cbb33846040518363ffffffff167c0100000000000000000000000000000000000000000000000000000000028152600401808373ffffffffffffffffffffffffffffffffffffffff1673ffffffffffffffffffffffffffffffffffffffff16815260200182815260200192505050602060405180830381600087803b158015610aa457600080fd5b505af1158015610ab8573d6000803e3d6000fd5b505050506040513d6020811015610ace57600080fd5b81019080805190602001909291905050501515610aea57600080fd5b7ff341246adaac6f497bc2a656f546ab9e182111d630394f0c57c710a59a2cb567600660009054906101000a900473ffffffffffffffffffffffffffffffffffffffff163384600560003373ffffffffffffffffffffffffffffffffffffffff1673ffffffffffffffffffffffffffffffffffffffff16815260200190815260200160002054604051808573ffffffffffffffffffffffffffffffffffffffff1673ffffffffffffffffffffffffffffffffffffffff1681526020018473ffffffffffffffffffffffffffffffffffffffff1673ffffffffffffffffffffffffffffffffffffffff16815260200183815260200182815260200194505050505060405180910390a160019050919050565b60045481565b6000600660009054906101000a900473ffffffffffffffffffffffffffffffffffffffff1673ffffffffffffffffffffffffffffffffffffffff166323b872dd8430856040518463ffffffff167c0100000000000000000000000000000000000000000000000000000000028152600401808473ffffffffffffffffffffffffffffffffffffffff1673ffffffffffffffffffffffffffffffffffffffff1681526020018373ffffffffffffffffffffffffffffffffffffffff1673ffffffffffffffffffffffffffffffffffffffff1681526020018281526020019350505050602060405180830381600087803b158015610cfc57600080fd5b505af1158015610d10573d6000803e3d6000fd5b505050506040513d6020811015610d2657600080fd5b81019080805190602001909291905050501515610d4257600080fd5b610d9482600560008673ffffffffffffffffffffffffffffffffffffffff1673ffffffffffffffffffffffffffffffffffffffff1681526020019081526020016000205461158c90919063ffffffff16565b600560008573ffffffffffffffffffffffffffffffffffffffff1673ffffffffffffffffffffffffffffffffffffffff168152602001908152602001600020819055507fdcbc1c05240f31ff3ad067ef1ee35ce4997762752e3a095284754544f4c709d7600660009054906101000a900473ffffffffffffffffffffffffffffffffffffffff168484600560008873ffffffffffffffffffffffffffffffffffffffff1673ffffffffffffffffffffffffffffffffffffffff16815260200190815260200160002054604051808573ffffffffffffffffffffffffffffffffffffffff1673ffffffffffffffffffffffffffffffffffffffff1681526020018473ffffffffffffffffffffffffffffffffffffffff1673ffffffffffffffffffffffffffffffffffffffff16815260200183815260200182815260200194505050505060405180910390a16001905092915050565b600083610f2c6014610f1e6015600288815481101515610f0557fe5b90600052602060002001546115c390919063ffffffff16565b6115fe90919063ffffffff16565b101515610f3857600080fd5b60045483101515610f4857600080fd5b3373ffffffffffffffffffffffffffffffffffffffff16600084815481101515610f6e57fe5b9060005260206000200160009054906101000a900473ffffffffffffffffffffffffffffffffffffffff1673ffffffffffffffffffffffffffffffffffffffff1614151515610fbc57600080fd5b600383815481101515610fcb57fe5b9060005260206000200154610fde6113b2565b111515610fea57600080fd5b6064610ff46113b2565b0160038481548110151561100457fe5b90600052602060002001819055506000808481548110151561102257fe5b9060005260206000200160009054906101000a900473ffffffffffffffffffffffffffffffffffffffff169050600060028581548110151561106057fe5b90600052602060002001549050600060018681548110151561107e57fe5b9060005260206000200160009054906101000a900473ffffffffffffffffffffffffffffffffffffffff1690506110fd87600560003373ffffffffffffffffffffffffffffffffffffffff1673ffffffffffffffffffffffffffffffffffffffff168152602001908152602001600020546115aa90919063ffffffff16565b600560003373ffffffffffffffffffffffffffffffffffffffff1673ffffffffffffffffffffffffffffffffffffffff1681526020019081526020016000208190555061116c8760028881548110151561115357fe5b906000526020600020015461158c90919063ffffffff16565b60028781548110151561117b57fe5b90600052602060002001819055503360008781548110151561119957fe5b9060005260206000200160006101000a81548173ffffffffffffffffffffffffffffffffffffffff021916908373ffffffffffffffffffffffffffffffffffffffff160217905550846001878154811015156111f157fe5b9060005260206000200160006101000a81548173ffffffffffffffffffffffffffffffffffffffff021916908373ffffffffffffffffffffffffffffffffffffffff16021790555060008211156112d85761129482600560008673ffffffffffffffffffffffffffffffffffffffff1673ffffffffffffffffffffffffffffffffffffffff1681526020019081526020016000205461158c90919063ffffffff16565b600560008573ffffffffffffffffffffffffffffffffffffffff1673ffffffffffffffffffffffffffffffffffffffff168152602001908152602001600020819055505b600193505050509392505050565b6000806004546112f46113b2565b8115156112fd57fe5b06905060018181548110151561130f57fe5b9060005260206000200160009054906101000a900473ffffffffffffffffffffffffffffffffffffffff1691505090565b6000600660009054906101000a900473ffffffffffffffffffffffffffffffffffffffff1673ffffffffffffffffffffffffffffffffffffffff168373ffffffffffffffffffffffffffffffffffffffff1614151561139e57600080fd5b6113a88585610c01565b9050949350505050565b6000600660009054906101000a900473ffffffffffffffffffffffffffffffffffffffff1673ffffffffffffffffffffffffffffffffffffffff1663829965cc6040518163ffffffff167c010000000000000000000000000000000000000000000000000000000002815260040160206040518083038186803b15801561143857600080fd5b505afa15801561144c573d6000803e3d6000fd5b505050506040513d602081101561146257600080fd5b8101908080519060200190929190505050905090565b600060038281548110151561148957fe5b906000526020600020015461149c6113b2565b119050919050565b6001818154811015156114b357fe5b906000526020600020016000915054906101000a900473ffffffffffffffffffffffffffffffffffffffff1681565b6003818154811015156114f157fe5b906000526020600020016000915090505481565b60028181548110151561151457fe5b906000526020600020016000915090505481565b600660009054906101000a900473ffffffffffffffffffffffffffffffffffffffff1681565b60008181548110151561155d57fe5b906000526020600020016000915054906101000a900473ffffffffffffffffffffffffffffffffffffffff1681565b60008082840190508381101515156115a057fe5b8091505092915050565b60008282111515156115b857fe5b818303905092915050565b6000808314156115d657600090506115f8565b600082840290508284828115156115e957fe5b041415156115f357fe5b809150505b92915050565b600080828481151561160c57fe5b049050809150509291505056fea165627a7a723058205dc35624146e6f5ea9f0af164f4d657283dffdbbfb49a5fe7acd868326fa3d570029",
  "source": "pragma solidity ^0.5.0;\n\n\n\n/**\n * @title SafeMath\n * @dev Math operations with safety checks that throw on error\n */\nlibrary SafeMath {\n\n  /**\n  * @dev Multiplies two numbers, throws on overflow.\n  */\n  function mul(uint256 a, uint256 b) internal pure returns (uint256) {\n    if (a == 0) {\n      return 0;\n    }\n    uint256 c = a * b;\n    assert(c / a == b);\n    return c;\n  }\n\n  /**\n  * @dev Integer division of two numbers, truncating the quotient.\n  */\n  function div(uint256 a, uint256 b) internal pure returns (uint256) {\n    // assert(b > 0); // Solidity automatically throws when dividing by 0\n    uint256 c = a / b;\n    // assert(a == b * c + a % b); // There is no case in which this doesn't hold\n    return c;\n  }\n\n  /**\n  * @dev Substracts two numbers, throws on overflow (i.e. if subtrahend is greater than minuend).\n  */\n  function sub(uint256 a, uint256 b) internal pure returns (uint256) {\n    assert(b <= a);\n    return a - b;\n  }\n\n  /**\n  * @dev Adds two numbers, throws on overflow.\n  */\n  function add(uint256 a, uint256 b) internal pure returns (uint256) {\n    uint256 c = a + b;\n    assert(c >= a);\n    return c;\n  }\n}\n\n\n/*\n\nThis is a King Of The Hill Aurhority contract which requires Proof of Stake to set the king\n\n\n*/\n\ncontract ERC20Interface {\n    function totalSupply() public view returns (uint);\n    function balanceOf(address tokenOwner) public view returns (uint balance);\n    function allowance(address tokenOwner, address spender) public view returns (uint remaining);\n    function transfer(address to, uint tokens) public returns (bool success);\n    function approve(address spender, uint tokens) public returns (bool success);\n    function transferFrom(address from, address to, uint tokens) public returns (bool success);\n\n    event Transfer(address indexed from, address indexed to, uint tokens);\n    event Approval(address indexed tokenOwner, address indexed spender, uint tokens);\n}\ncontract ERC918Interface {\n\n  function epochCount() public view returns (uint256);\n\n  function totalSupply() public view returns (uint);\n  function getMiningDifficulty() public view returns (uint);\n  function getMiningTarget() public view returns (uint);\n  function getMiningReward() public view returns (uint);\n  function balanceOf(address tokenOwner) public view returns (uint balance);\n\n  function mint(uint256 nonce, bytes32 challenge_digest) public returns (bool success);\n\n  event Mint(address indexed from, uint reward_amount, uint epochCount, bytes32 newChallengeNumber);\n\n}\n\n\ncontract RelayAuthorityInterface {\n    function getRelayAuthority()  view public returns (address);\n}\n\n\ncontract StakingDelegate is  RelayAuthorityInterface {\n\n\n    using SafeMath for uint;\n\n\n\n   //There are slots, can overwrite one by staking enough tokens\n    address[] public stakers;\n    address[] public stakerAuthorities;\n    uint[] public amountStaked;\n\n    uint[] public stakingLockBlock; //The block at which the staker is allowed to withdraw their stake\n\n    uint public numberOfStakers = 15;  //A constant\n\n    mapping(address => uint) public balances;\n\n\n\n   address public minedToken;\n\n\n\n    event Deposit(address token, address user, uint amount, uint balance);\n    event Withdraw(address token, address user, uint amount, uint balance);\n\n\n   // 0xBTC is 0xb6ed7644c69416d67b522e20bc294a9a9b405b31;\n  constructor(address mintableToken) public  {\n    minedToken = mintableToken;\n  }\n\n\n  //do not allow ether to enter\n  function() external payable {\n      revert();\n  }\n\n\n  function startStaking(uint tokens , uint stakerIndex, address authority) public returns (bool)\n  {\n    require( amountStaked[stakerIndex].mul(21).div(20) < tokens );\n    require( stakerIndex < numberOfStakers );\n    require( stakers[stakerIndex] != msg.sender );\n    require( getEpochNumber() > stakingLockBlock[stakerIndex]);\n\n    stakingLockBlock[stakerIndex] = getEpochNumber() + 100;\n\n    address originalStaker = stakers[stakerIndex];\n    uint originalAmountStaked = amountStaked[stakerIndex];\n    address originalAuthority = stakerAuthorities[stakerIndex];\n\n\n    balances[msg.sender] = balances[msg.sender].sub(tokens);\n    amountStaked[stakerIndex] = amountStaked[stakerIndex].add(tokens);\n    stakers[stakerIndex] = msg.sender;\n    stakerAuthorities[stakerIndex] = authority;\n\n    if(originalAmountStaked>0)\n    {\n      balances[originalStaker] = balances[originalStaker].add(originalAmountStaked);\n    }\n\n    return true;\n  }\n\n  function stopStaking(uint stakerIndex) public returns (bool)\n  {\n    //require( amountStaked[stakerIndex] >= tokens );\n    require( stakers[stakerIndex] == msg.sender );\n    require( stakerIndex < numberOfStakers );\n    require( getEpochNumber() > stakingLockBlock[stakerIndex]);\n\n    uint originalAmountStaked = amountStaked[stakerIndex];\n\n    amountStaked[stakerIndex] = 0;\n    stakers[stakerIndex] = address(0x0);\n    stakerAuthorities[stakerIndex] = address(0x0);\n    balances[msg.sender] = balances[msg.sender].add(originalAmountStaked);\n\n    return true;\n  }\n\n\n  /*\n  Rotate through the staker authorities\n  */\n  function getRelayAuthority() view public returns (address king)\n  {\n    uint stakerIndex = getEpochNumber() % numberOfStakers;\n\n    return stakerAuthorities[stakerIndex];\n  }\n\n\n  function isSlotOpen(uint stakerIndex) view public returns (bool open)\n  {\n    return ( getEpochNumber() > stakingLockBlock[stakerIndex] );\n  }\n\n  function getEpochNumber() view public returns (uint256  )\n  {\n    return  ERC918Interface(minedToken).epochCount() ;\n  }\n\n\n\nfunction depositTokens(address from,  uint256 tokens ) public returns (bool success)\n  {\n      //we already have approval so lets do a transferFrom - transfer the tokens into this contract\n\n      require(ERC20Interface(minedToken).transferFrom(from, address(this), tokens));\n\n      balances[from] = balances[from].add(tokens);\n\n      emit Deposit(minedToken, from, tokens, balances[from]);\n\n      return true;\n  }\n\n\n  //No approve needed, only from msg.sender\n  function withdrawTokens(  uint256 tokens) public returns (bool success){\n     balances[msg.sender] = balances[msg.sender].sub(tokens);\n\n     require(ERC20Interface(minedToken).transfer(msg.sender, tokens));\n\n\n     emit Withdraw(minedToken, msg.sender, tokens, balances[msg.sender]);\n     return true;\n}\n\n\n  function receiveApproval(address from, uint256 tokens, address token, bytes memory data) public returns (bool success) {\n       require(token == minedToken);\n\n       return depositTokens(from,   tokens );\n\n}\n\n\n\n\n\n\n\n}\n",
  "sourcePath": "/home/andy/dev/lava-token/contracts/StakingDelegate.sol",
  "compiler": {
    "name": "solc",
    "version": "0.5.0+commit.1d4f565a.Emscripten.clang"
  },
  "schemaVersion": "3.0.3",
  "updatedAt": "2019-03-14T02:15:07.956Z",
  "devdoc": {
    "methods": {}
  },
  "userdoc": {
    "methods": {}
  }
}